:020000040300F7
:04000000BD957EA389
:100004006F00C0506F0080476F0040476F0000478B
:100014006F00C0466F0080466F0040466F00004688
:100024006F00C0456F0080456F0040456F0000457C
:100034006F00C0446F0080446F0040446F00004470
:100044006F00C0436F0080436F0040436F00004364
:100054006F00C0426F0080426F0040426F00004258
:100064006F00C0416F0080416F0040416F00402627
:100074006F0000266F00C0256F0080256F004025AB
:100084006F0000256F00C0246F0080246F0040249F
:100094006F0000246F00C0236F0080236F00402393
:1000A4006F0000236F00C0226F0080226F00402287
:1000B4006F0000226F00C0216F0080216F0040217B
:1000C4006F0000216F00C0206F0080206F0040206F
:1000D4006F0000206F00C01F6F00801F6F00401F63
:1000E4006F00001F6F00C01E6F00801E6F00401E57
:1000F4006F00001E6F00C01D6F00801D6F00401D4B
:100104006F00001D6F00C01C6F00801C6F00401C3E
:100114006F00001C6F00C01B6F00801B6F00401B32
:100124006F00001B6F00C01A6F00801A6F00401A26
:100134006F00001A6F00C0196F0080196F0040191A
:100144006F0000196F00C0186F0080186F0040180E
:100154006F0000186F00C0176F0080176F00401702
:100164006F0000176F00C0166F0080166F004016F6
:100174006F0000166F00C0156F0080156F004015EA
:100184006F0000156F00C0146F0080146F004014DE
:100194006F0000146F00C0136F0080136F004013D2
:1001A4006F0000136F00C0126F0080126F004012C6
:1001B4006F0000126F00C0116F0080116F004011BA
:1001C4006F0000116F00C0106F0080106F004010AE
:1001D4006F0000106F00C00F6F00800F6F00400FA2
:1001E4006F00000F6F00C00E6F00800E130101F945
:1001F400232081042322910423242105232631056D
:1002040023284105232A5105232C6105232E71053A
:1002140023208107232291072324A1072326B10742
:10022400930501112328B106232A3106232C410604
:1002340073251034F325003073263034F32620342C
:10024400232EA1062320B1082322C1082324D10888
:1002540013050100EF10E07D01A01300000013015D
:1002640001F9232081042322910423242105232638
:10027400310523284105232A5105232C6105232E0A
:10028400710523208107232291072324A107232614
:10029400B107930501112328B106232A3106232C23
:1002A400410673251034F325003073263034F326C9
:1002B4002034232EA1062320B1082322C10823249D
:1002C400D1081305010073700430EF10607601A0AB
:1002D400130101F62326A1002328B1007325D07E43
:1002E400F325E0BF7310E5BF232CB100F3250030E4
:1002F400232EB100F32510342320B10273252034BA
:10030400B72500009385058073A00530970500008C
:100314009385050173901534730020302320510018
:100324002322610023247100232AC1002322110205
:100334002324D1022326E1022328F102232A0103E4
:10034400232C1103232EC1032320D1052322E105ED
:100354002324F1052726010427281104272A210430
:10036400272C3104272E4104272051062722610619
:10037400272471062726A1062728B106272AC106A5
:10038400272CD106272EE1062720F1082722010970
:10039400272411092726C1092728D109272AE10979
:1003A400272CF109F3223000232E51081375F50F81
:1003B400EF10E05A03234100832381000326410107
:1003C40083204102832681020327C102832701037C
:1003D4000328410383288103032EC103832E0104D0
:1003E400032F4104832F81040720C10487200105C2
:1003F40007214105872181050722C10587220106BE
:1004040007234106872381060725C106872501079F
:1004140007264107872681070727C1078727010881
:100424000728410887288108072EC108872E01095B
:10043400072F4109872F81098322C1097390320054
:100444000325C101F32200308325010293F28200C7
:100454003B920200137575F7731005308322010077
:1004640073901534032581017310E5BF83250101C1
:100474000325C1001301010A73002030130101F6A2
:100484008B1FF1FF130101F6732520341303B00011
:10049400630C65021303800063086502B7050080DE
:1004A4001306F00FB375B5003375C5001306C0000D
:1004B400E30EC5D2E38505DA1301010A8B0FF1FFC0
:1004C4001301010A73002030B723000093830380D3
:1004D40073A00330F32210349382420073901234D9
:1004E4001301010A8B0FF1FF1301010A730020307D
:1004F40063DC7200032E030023A0C2019382420036
:10050400130343006FF0DFFE678000007350003078
:100514007350403073700430970200009382C2AE6F
:10052400938212007390523073D0F07EB70271142C
:1005340003A302121363130023A0621203A3421243
:100544001363130023A26212B7C2DCFE938282A952
:100554003703711413030320232053009701000170
:100564009381410F1731000113018169B7023014DF
:100574009382820003A302001373030223A0620088
:10058400B70200141303000023A2620223A4620230
:1005940023A6620223A8620223A46204B782101075
:1005A4009382023003A302001363130023A06200AA
:1005B4009382C19A17430001130383A49303000099
:1005C40023A0720093824200E3CC62FE970200FFF4
:1005D400938202A3170300001303830B970300FF06
:1005E400938303A2EFF0DFF09382C19A1703000014
:1005F4001303030A9383C19AEFF09FEF9382C19A86
:10060400174300001303838E9383419BEFF05FEE47
:100614007350007C0F00F00F7350107C0F00F00F2C
:10062400B72200009382820073A00230930200027A
:1006340073A01230B712111193821211739002BC7D
:10064400739012BC739022BC739032BC739042BC02
:10065400739052BC739062BC739072BC739082BCF2
:10066400739092BC7390A2BC7390B2BC7390C2BCE2
:100674007390D2BC7390E2BC7390F2BC7300000020
:0C068400EF00C000EF10D0716F0000000C
:1006900018816800EF10B07211C101A032452926FF
:1006A0003245D52CEF1050279F0740787D0163031A
:1006B000F500E926EF10C02B9D2171282120C12EC5
:1006C0002129148118820A869128B247100893F6CE
:1006D000F77FAD8393F7F77FD3F707D0B7470003D2
:1006E00007A787B7B747000387A6C7B7138776FC66
:1006F0009386860DC3F7E76853F706D09387419B2F
:100700009AA79CE3D3F7E718DCE30928E2471387AD
:10071000C19AC98393F7F71F1CC31482854501450D
:1007200035A1938701A81B85A7043E21B746000386
:1007300013972701635B07007177D98F53F507D0B3
:1007400087A746B85375F510828009677D17F98F22
:1007500053F517D0F5B731719302810A8B96E200F9
:1007600022EF0A869145052482471F076996A55AFC
:10077000938401AB6394E70085479CA010088945EA
:100780001924834781011387019B1CC39C20638B21
:10079000071A1010D545C52A37B4101092561C40C0
:1007A0001F07FFFFE0FFFD8AD92A1CC01C4093E70A
:1007B00017001CC092565C409582C9225CC05C4008
:1007C00093E717005CC01C44A2564D2A1CC41C446D
:1007D000B2561F06FFFFFFE0F18FFD8A9BA7D730BF
:1007E0001CC4A2565C449582512A5CC4B2565C4437
:1007F0009582FD8AF18F9BA7D7305CC4A2561C4816
:10080000A982AD2A1CC832571C489305803E298313
:100810007D8BF18F9BA7E7301CC82945EF10601234
:100820005C40BBD307001C4C37078000D98F1CCC21
:100830009C20638607101018D945B1229000DD4531
:1008400099228964138401A8C257FD143D2A1169B5
:100850001AA07D19352A3EA08647052A5AA00D2ADE
:100860007EA0E2571D221AA425223EA4A647312AC3
:100870005AA4392A7EA49008E14531229010E5451A
:100880001922C64719221AA821223EA88657F52800
:100890005AA8FD287EA8E647CD281AACD5283EAC3C
:1008A000A657E5205AACED207EAC9018E945E1282A
:1008B0001001ED45C928C657C9281AB0D1283EB045
:1008C0008A47E1205AB0E9207EB0E6577D281AB465
:1008D000C1203EB4AA47FD8C1B49F95A46B42317E0
:1008E0002403814493F73400F91713D92400054AEF
:1008F000BBE10702094A9B0794049E23268593F9CE
:10090000140053F417D0B747000387A707B85B5903
:100910002A031B8929035374F41021353747000338
:10092000072787B89387019C9B872707D377A7085A
:1009300080E385044BF48770C0E3BB9AE40C7A64CF
:100940000D616480925732579F06FF83FFFF93F734
:1009500007C093E707213ED2A2571166137707C05D
:1009600093F707C093E70721F58FD18F136707210E
:100970003ED4B377D700D18F3ED639BDFD8AF98FEB
:100980009BA7D72082800145D1A233F797008280B0
:100990009B47F95A82801882B70700102ACE480078
:1009A0003EC2EF10807314821880BB04050161C140
:1009B0003B0E25021F05007D000021A01F0580C3FE
:1009C000C901B717711483A7079437073000B746DA
:1009D0000F00D98F135615001387F623329793868D
:1009E00006243357D702930600F09BC7D7E89F052C
:1009F000404B4C00AA86019F9BA7E718014763EC78
:100A0000D5061D8BB7F6FA0293F7F78F9BA7E71071
:100A10001387F6072A97938606083357D70293F76A
:100A2000F7F0B71671147D173D8B9BA7E708C19BA4
:100A3000D98F23A0F694B79798001387F7673A9653
:100A4000938707683357F6023686BB71070209475A
:100A5000832706E19376F70101579BC7E7F09BA731
:100A6000D7102328F6E01480EF10006999BF1F0506
:100A700040787D01B9B70507858251B7B717711462
:100A800083A707941397B700E34A07FE8280188173
:100A90000A86FD4501455D2883C701AB8DC7B706B2
:100AA00020188247D84213F6F701937707FED18FBB
:100AB000DCC2824737162018A9833920824737269F
:100AC0002018D18311201481584293F6F7019377AF
:100AD00007FED58F5CC28280188183C701AB9DC39E
:100AE0000A86D54501459D20824737167E14032787
:100AF000C6A0A9838556BD8B1B47D7E29B27F7204D
:100B00002326F6A014811F05201030146F10A06357
:100B10009F0720103014C8431345F5FF82802880BA
:100B2000138441AB9F07201030141CC0FD570147B0
:100B30005CC01CCC228585471CC418C85CC858C43E
:100B4000EF10700C228520806F103015AA860545A5
:100B500063070610BBF246029307F01F63E1B7106C
:100B60003708711403270800698F75EB9F0798BA3F
:100B7000DCFE2320F820B707800099C2B727800049
:100B8000370771149B85B708FD565C43A9829BC546
:100B9000B6449306F03F9BC7D7D09BA7B7045CC36E
:100BA0001C439D5693F7F78F93E707101CC31C4314
:100BB0009BC7D7CEB7060010D58F1CC31C4393E745
:100BC00017001CC3B70771149C43858BE5FF3707DB
:100BD00071141C4399838D8BFDFB8327071093961B
:100BE000F70063C40604832707109396C70063CEFB
:100BF0000602832707109396B70063C8060283276F
:100C0000076001451CC2832707605CC28327076019
:100C10001CC6832707605CC68327C71093E70701BC
:100C20002326F710232007208280B706711483A79C
:100C3000C610370708000545D98F23A6F61083A7ED
:100C4000C6104167D98F23A6F61083A7C6103707B1
:100C50001000D98F23A6F61023A006208280828060
:100C60001F078C3B000381463A861C436395A7000F
:100C70005B15D60C8280850631073B9CF633014517
:100C800082800347B5021C4111EB9843799B98C3BE
:100C900098431377F7FD98C3014582809843136703
:100CA000170098C398431367070298C3D443184D9D
:100CB00093F6F6F03D8B1BA7E608D8C3D443584DF6
:100CC0001376F70013F706FF518FD8C3944B1851D2
:100CD00093F6F6F03D8B1BA7E60898CB944B585142
:100CE0001376F70013F706FF518F98CB54499843BA
:100CF000858A759B1B27D70298C35841BB080701FB
:100D000009C7BB0F0702BB0A07039843FD76FD1610
:100D1000758F98C39843F976FD16758F01A898438F
:100D200085666F03A00631E36F03E00798C335A81B
:100D3000984385666F03800501E76F03C00698C37B
:100D4000984389660156558F98C37425D847FD8A04
:100D50001B47C7F06F03E005D8C71829D44713769F
:100D6000F70113F706FE518FD8C78347A502184134
:100D7000A1C71C4393E707011CC3834685021C439C
:100D80008D8ACD9B9BA7D7041CC339B7558F98C3B9
:100D9000184594431376170093F6F6F79BA6C60EF4
:100DA00094C3219F0283542598430556BD8A1B474F
:100DB000C7F21B27D71002831C43BD9B75BF488019
:100DC0001C41AA840149A04B8547B3972701E18FB5
:100DD000A9CF9840744B3B0819023B0819033B0507
:100DE00019013C53C183F58F9B862407FCD201482F
:100DF0000546B315060133F5B70011C16CCB0508E4
:100E00003B1CF810B31726013CCBBC520F00F00F6F
:100E1000BE82739002BF3B0D09023B0F09033B08E2
:100E2000090183A7040891C3792005093B17E90448
:100E30003DA07C5345BF3C5775B77C5765B783A72A
:100E40004408A5CF8D28094941B783A78408B5C7B1
:100E50009D200D4995BF83A7C40891C3A9289C4034
:100E6000A04F31CCF84FA0CFF8CF9C480F00F00F27
:100E7000BE82739002BF814681450546B317B60016
:100E8000F98F99C7B397C500B297B317F600DD8EF7
:100E900085053B9AF510D4C89377F40089C783A7DA
:100EA000440991C30928418819C883A7840981CBC3
:100EB00026854080828726858287050931B7448050
:100EC00028805C2D639707101C412A84294503A7BD
:100ED000471D1367170023AAE71CDD201C4C184090
:100EE000B7060018920793E717006317D70A37B7BA
:100EF00010101447D58F1CC71C4C894681C7FD179D
:100F000093B617001C40D9201D9B1B27D70623A092
:100F1000E70E6D281377F7F99B26D70A23A0D70E83
:100F200003A7019B9306F00F6301D70639CFB8439F
:100F300013670702B8C3B8431D9B1367870071206E
:100F40001367270023A0E70E03A7C710B7062000EA
:100F50001305E010558F23A6E71003A7470E13676C
:100F6000870723A2E70E03A7070F1367170023A81D
:100F7000E70EB9201C40B8431377F7FDB8C3B84358
:100F80001D9BA120759B23A0E70E1C4058400145E6
:100F9000F8DB85475CAC2480B71600186318D700CF
:100FA00037B710105447D58F5CC7B9B7B7260018AC
:100FB000E314D7F437B71010144BD58F1CCB2DBFCB
:100FC0009F0540420F006F00D017B8C303A7070E5C
:100FD00082800545C9B7411122C626C41C42138828
:100FE00085001B08050513F7F700832708007D74AB
:100FF0003D04C19BD98F2320F8005422E18F015476
:101000009BA7D7082320F8001826930600F09BC75B
:10101000D7E81BA7E7182320E8005C469D561B472E
:10102000D7DE8D8B9B27F7282320F800144A9BC717
:1010300087D4FD8A9BA6D72C2320D800584A9377C3
:1010400037001D571BC7E6D01B27F7362320E800C3
:10105000144E8D579B47F7CA9BA7D73A2320F80019
:1010600013D6470013D4C70093D4670113F8F700D1
:10107000ED83019E019CFD888D8B1441BB98150F5B
:101080009386060C98423367070198C21441BB98B7
:10109000150F9386060C98421B27C71698C2144159
:1010A0003B96150F9386060C98421B27872898C2FB
:1010B0001841BB93150F9306070C98429B27F71214
:1010C0009CC21841BB91150F1307070C1C43014527
:1010D0009BA797081CC33244A244410182806F033E
:1010E00060004DB7938606089B86B604028359BFFD
:1010F0006FF35FFF4DB745B76FF3DFFE75B76DB7A1
:10110000130707089B06B7044DBF130707081B0703
:10111000B7046DBF38802A842A86B71400030849B3
:1011200005202850292822862854192828580128C3
:10113000285C22869385E4DB30806F0030052286B0
:101140009385E4DB6F0090041880AA873BF50508BF
:101150002E852D28080E141A20262C3223A0C7080D
:10116000148023A2C708EDBF23A4C708D5BF23A6B8
:10117000C708FDB723A8C708E5B723AAC708CDB796
:1011800023ACC708F1BF23AEC708D9BF41112EC099
:101190008685AA958C21AE908245410182800327E5
:1011A00005319D47B397C70093C7F7FF7D8F23286D
:1011B000E53003270531B395C5004D8F2328E53071
:1011C00003274531F98F232AF53003264531D18D88
:1011D000232AB530828018418326073213960601F0
:1011E00063590602832607323706770FD18E2320F4
:1011F000D7328326073237060080D18E2320D7329C
:10120000384D0F00F00FBA82739002BF3C518DC76A
:10121000828783260742858A3B98060183260742F8
:101220004166D18E2320D742784D0F00F00FBA824D
:10123000739002BF7C51E1BF8280828038802A8413
:10124000ED3F1C4018480568944B137637007D1815
:1012500013F7C6FF518F98CB5228984B1F05FFFFFD
:1012600000F03376C800698F8D2698CBB843C164EF
:10127000FD14719BB8C390537A28C175B376B6003C
:10128000658FD98E94D3904F1A2C698E3377E800EE
:101290001B26E62090CF904F3A2CB376B600658F90
:1012A000D98E94CF904F37070080598E90CF945F9E
:1012B000BD2094DFD45FA520D4DFC928D8DF185023
:1012C00035E7B8431377F7EF85261377F7BFB8C331
:1012D0001C4481CFBE86BB81070189461840832705
:1012E0000710F19BD58F2320F7105C4481CFBE8679
:1012F000BB8107018946184083274710F19BD58F92
:101300002322F7105C403B8C7701D9CB0148BB8C82
:101310007702BB89770301458144814771A05A2830
:10132000E98E3377E8009BA6E6208280B8431367F6
:101330000710DD2C13670740B8C31450B843F516E7
:1013400013B616001377F7DF1B27C712B8C3B443D1
:101350003D579BC6E6F29BA6C616B4C32D209BC67E
:10136000E6E00D209BC6E6D0F4CBF84B54501B278B
:10137000D720F8CBF84B54501B27D730F8CB392067
:10138000D8DFB9B7F4CBF44B01578280945F5A2C65
:10139000ED8ED98E94DFD85F762C6D8F558F82803D
:1013A000094801458544C287184409EB1848144090
:1013B0003B0E5701630907143B036702584409EBCE
:1013C00018481440BB0E670163080718BB03770277
:1013D0001C4499C35C44A1EB1440E522F19BC98FE6
:1013E000F92A93F7F7FC23A4F6201E3403A706205E
:1013F00041667D16C175F18F6D8FD98F23A0F620C0
:10140000C922CD9B9BA7A7045D2A93F7F7F31BA8DE
:10141000070D23A406211E3403A74620F18F6D8FEC
:10142000D98F23A2F6201C4052288565985BFD15B4
:101430006D8E9F06FFFF00F0412A98DB5228D85B93
:101440006D8E5922D8DB945B7238C175CD22B137CD
:10145000D8DB7440B843639D06163D9BF122137799
:10146000F7FBB8C314401C5803A70650C12A23A099
:10147000F65083A7865003474403E92223A4F6507D
:1014800083A706500347C40241767D16058BF18F72
:101490009BA7E72023A0F65003A746505C5C792A5F
:1014A00023A2F65083A7C65003470404612A23A64B
:1014B000F65083A7465003478403F18F058B9BA703
:1014C000E72023A2F65003A746423C48852A23A2E0
:1014D000F64283A7864203474405AD2223A4F64281
:1014E0000347C40483A746410145058BF99BD98F67
:1014F00023AAF6403480094805458944AA876DB57A
:101500000145854455B599201B27F71801281B472D
:10151000B7E61B27972023A0E6104DB523A0E610C1
:1015200003A706109D55828003A70610D1751520CC
:101530001B27F71CE5371120F9BF1B47B7E21B2714
:101540009724828021201B27F718EDB703A70610E8
:10155000F575FD156D8F828003A74610F575D53F93
:101560009B27F718112883A746109D559BC7B7E600
:101570009BA797201120A9BD23A2F610828003A764
:101580004610D175F9379B27F71CFD3703A7461086
:101590009D55653723A2E61025BD03A64610F575B7
:1015A000FD156D8E9B27F618C13F03A646109D556D
:1015B0001B46B6E21B26962423A2C61011BD23A407
:1015C000F62083A786208280758F1B27C720828004
:1015D00013670701912813670704B8C37440138782
:1015E000D6FFB4431337170093F6F6FD9BA6E60A21
:1015F000B4C3B44393F6F6F79BA6E60EB4C3F44B1C
:10160000819A49339BC6E6F0F4CBF44B3044D18E3B
:10161000F4CBF84B34441B27D710F8CB945B7238CB
:101620003920A53BD8DB3DBDB8C3B8438280ED8EE1
:10163000D18E94DBD85B835624048280BD8B419B82
:10164000D98F82803D8BC19BD98F828038801C418D
:101650009D56AA8423A00730984B2E841B47D7CED3
:1016600098CB23A20732D441D84963980614492A5B
:101670004207592223A0E73014205848638B0616EE
:101680004122558F23A0E73014285848638D061651
:1016900083A60741558F23A8E74003A70761A166EA
:1016A000FD161367F70023A8E760184C6176014820
:1016B000758F83A68760219FF18E558F23A4E760E5
:1016C000504C8C40B3570601858B3B415803AD56B7
:1016D0009B06D8C603A5456086060D473317D7007D
:1016E0001347F7FF698F23A2E56003A74560B3970F
:1016F000D700D98F23A2F5600508BB12F80903456E
:1017000004020146B7871010984B93058601854661
:10171000B396B600558F98CB984B93153600B315FA
:10172000B5004D8F98CB984F0506558F98CF984FA1
:101730004D8F98CF3B14F60388400D5783270561E2
:101740009BC7E7E44167D98F2328F5604C44813C6F
:101750004C4488404D46A13498405C403D56832619
:101760000730858B9BC6C6D89BA7F6302320F73061
:101770001C44858B99C78327473293E707102322A0
:10178000F7321C44898B81CB83274732B70600018F
:10179000D58F2322F7321C20C9CF8327073093E748
:1017A00007102320F7301C28D1CB8327074193E76C
:1017B00007102328F74001453480BB9FA6018920EC
:1017C0001BA7E62023A0E7309845058B19C783A601
:1017D0004732D849558F23A2E7321844098BE30DCD
:1017E00007E883A6473258481BA7E62023A2E73222
:1017F00061B53920112079B51347F7FF758F8280C5
:1018000083A60730828083A60741FD3769B583A68A
:101810000560131518000D473317A700F13F23A0EB
:10182000E56003A70560B397A700D98F23A0F560F3
:10183000E1B58327073093F7F7EFA5B78327074173
:1018400093F7F7EFBDB71C41014503A787701377E6
:1018500007F023A4E77003A78770D98D23A4B7707E
:1018600003A787701367071023A4E77082801C41C9
:10187000D4413D56D84B01451B47C7CA1B27D73E0D
:10188000D8CB9621D84B05667D16F18E1F06FFFF3B
:1018900000F0718F1B27D720D8CBD44BB2214177D2
:1018A000758F518FD8CB984583A607703D8BC19A11
:1018B000558F23A0E770DA2523A2E7708280388055
:1018C0002A842A86284DB71400039385641D7D2839
:1018D000684C22869385641D30804DA881C5BB82EB
:1018E0000501828070D1828030D182804880AA84B4
:1018F000EFF00FA22A891F0440420F00EFF0AFA0C3
:101900003354850233049402EFF08FA03305254150
:10191000E36C85FE44803880AA84014463139400FC
:1019200034801305803ED9370504CDBF3880AA84A2
:1019300001446313940034801305803EE93F05049D
:10194000CDBF9307803E638AF5009F0740420F009A
:101950006386F500BB920501D1BF75BF41BF828090
:1019600082809387C1AD1B85A7061C4148418287B1
:101970001387C1AD81469F07601900031CC3232252
:101980000700850621073B9CF675828091E101A046
:1019900089463B7805759387C1AD9B87A706984319
:1019A0001F05601900038D466315A700D0C38CC3C3
:1019B0008146368582803B7705759387C1AD1B854F
:1019C000A7069F07601900031CC1232205000145DB
:1019D000828009458280930765FE3BF5175B85474A
:1019E0003B7405203395A70073254530014582805F
:1019F000BB750540732700BE3395A700598DAA8299
:101A0000739002BEE5B7BB750560732710BE3395B2
:101A1000A700598DAA82739012BEC9BF732720BE3A
:101A20003395A700598DAA82739022BEC1B709458C
:101A300082808280FDBF11E101A0E5BF18801915E9
:101A40000946BB71155B9387F5FF15463BFF0707FA
:101A50001356350093172500BD463B7B260832857B
:101A60003687EFF0AFF20826364452606E7C73275B
:101A700000BCB396F60093C6F6FFF98EB397F50057
:101A8000D58FBE82739002BC32851480F32610BCC1
:101A90008520BE82739012BC0146FDB7F32620BCA0
:101AA0008128BE82739022BCC5BFF32630BC89203A
:101AB000BE82739032BCCDB7F32640BC1528BE82DF
:101AC000739042BCD1BFF32650BC1D20BE827390E0
:101AD00052BCD9B7F32660BC2128BE82739062BC89
:101AE00065BFF32670BC2920BE82739072BC6DB7AF
:101AF00013F5C7013317A7001347F7FF758FB39787
:101B0000A500D98F828013F5C701B396A60013C72D
:101B1000F6FFB397A5003B0A060ABB0C060BBB04F5
:101B20000609732580BC1528BE82739082BCADB7B0
:101B3000732590BC1D20BE82739092BCB1BF7325EB
:101B4000A0BC2128BE827390A2BCB9B77325B0BCDB
:101B50002920BE827390B2BC81B7698FD98F8280F1
:101B6000370710107C43C166F916F58FB70651EAA6
:101B7000B6977CC38280370710107C43B70651EAC2
:101B8000A19F93E71700B6977CC38280138741E833
:101B90001E25184385893E971C4391C993E717007A
:101BA0001CC31C43C176FD16F58F1CC38280F99BB4
:101BB000EDBF938741E81A259C43BA97884305896E
:101BC0008280938741E89C431A25C176FD163E9793
:101BD0001C438589F58F9BA5B7200CC38280938712
:101BE00041E81A259C43BA97884341810589828040
:101BF000938741E89C431A258D893E971C4393F7B0
:101C0000F7CF9BA5B7100CC38280938741E81A25B4
:101C10009C43BA97884321810D898280138741E8CC
:101C20001E251843411185893306F7001C423825CB
:101C30003EC68547B397E700C207C18793C6F7FF43
:101C40008DC53247C175D98F3247A19F6D8FD98F0E
:101C50003EC6B2479BC6F660B247A19F9BA6D7205F
:101C600036C6B2471CC241018280B2473247A19FAB
:101C7000FD8EC177F98FD58F3EC6E5B7138741E852
:101C80001E25184341112825BA979C433EC6B247EA
:101C90004101A19F33D5A74005898280138741E880
:101CA0001E25184341118589B306F7009C4238254B
:101CB0003EC68547B397E7003247C207C18781CD4B
:101CC0009BA7E7603247219F9B27F7203EC6B2477C
:101CD0009CC24101828093C7F7FF9BC7E760DDB7D5
:101CE000138741E81E25184341112825BA979C43C4
:101CF0003EC6B2474101C18333D5A74005898280E2
:101D0000938741E89C431A2541113E971C433EC6E8
:101D1000B2479DC993E717003EC6B247C176FD168C
:101D200093E727003EC6B247F58F3EC6B24781769D
:101D3000FD16F58F3EC6B247BD569BC7D7E43EC6DB
:101D4000B2471CC341018280F99B3EC6B247F59B56
:101D5000FDB7938741E89C431A253E971C43858B2A
:101D600089C7084305810589828001458280938760
:101D700041E89C431A25F576FD163E971C438D8954
:101D8000F58F9BA5B7180CC38280938741E81A256D
:101D90009C43BA97884331810D898280938741E8BB
:101DA0009C431A25FD893E971C4393F7F7E09BA5BA
:101DB000B7080CC38280938741E81A259C43BA97E1
:101DC000884311817D898280938741E89C431A254D
:101DD00041113E971C433EC6B24795C1C166D58F9F
:101DE0003EC6B247B7060200D58F3EC6B247B70619
:101DF0000400D58F3EC6B2471CC341018280C17624
:101E0000FD16F58F3EC6B2478176FD16F58F3EC6AC
:101E1000B247BD569BC7D7E4F1BF938741E81A2567
:101E20009C433E9708431C43C5839BA7A760084378
:101E30001BA5A76405898280938741E89C430358CA
:101E40008500382541113E98832708003EC6854706
:101E5000B397E700E207E18793C6F7FF85C93247EA
:101E6000324641831D8B758F8D561B46D6E41B274A
:101E7000E6203AC63247D98F32479D8B619BD98F76
:101E80003EC6B2472320F80041018280B247324764
:101E90009D8BFD8E619BD98E36C6E5B7938741E851
:101EA0001A259C432825BA979C439D8B33D5A74080
:101EB00005898280011122CE938741E89C43035813
:101EC00085003425BD893E98832708008A063EC6D2
:101ED000324785671384F7FF1B47E4481316070151
:101EE0003D473317D700B24741821347F7FF718F41
:101EF00041763D06618FF18F1BA7E7083AC6B247CE
:101F0000B396D50032479B47F448A19FD58FE18F08
:101F1000A19F718F9B27F7083EC6B2472320F80088
:101F2000724405618280938741E81A259C432825E5
:101F3000BA979C430A05C207D18333D5A7003D89D0
:101F40008280938741E89C431225382541113E96B3
:101F50001C423EC68547B397E7003247E207E18758
:101F600085C19BA7E76032479D8B9F06FFFFF8FF67
:101F7000758F9B27F7203EC6B2471CC24101828065
:101F800041831D8B93C7F7FFF98FB2461F07FFFFF1
:101F9000F8FFF9BF938741E81A259C432825BA9793
:101FA0009C43C1839D8B33D5A7400589828093874D
:101FB00041E89C431A2585893E971C43F99BDD8D9A
:101FC0000CC38280938741E81A259C43BA978843C3
:101FD00005898280938741E898431C43858B85CB94
:101FE0001F0580C3C9015C438546BD8B3BE30702E7
:101FF000BE86BB81070291461C473355D502819F9F
:10200000BBE507409307F0033385A70282801F05D5
:1020100040787D01C9BFBBFCF7069947F5B738800A
:102020000041938741E8AA8480C35C41C9CF1F0760
:1020300080C3C9019C4485463BE307029146BB919E
:102040000702BE863357D7029F0700F7C2FF9F06DD
:10205000E06735000545BA9763E6F606DC44B3074A
:10206000F7021F07001F0AFABA971F0700E1F505DC
:10207000636AF704F534DC40184093F61700937751
:10208000E7FFD58F1CC058409C4491205CC01C4485
:10209000D82493F707F0D98F1CC458449C480528CE
:1020A0005CC41C4879777D17F99B1CC85C48F98F84
:1020B0005CC81C50858BF5DF5C4C93E787005CCCDB
:1020C0005D3C014534801F0740787D01A5B793F63C
:1020D000F700937707FFD58F828038800041AA846C
:1020E00041349C4C584C93F637009377C7FFD58FFB
:1020F0005CCC5134014534802880938741E880438B
:10210000D13D5C44BD8BBBE1070695470547B3173E
:10211000F7003355F5022480938741E89C43DC4F58
:102120008D8BBB84070181CF3B8507021F05007D96
:10213000000082801F0580C3C901828075BF1F0512
:1021400040787D0182804880AA84F9372A842685D8
:10215000292AAA8419CD4841BB760506EFF00F83E2
:1021600006101A5A301026854D3405803354A400C9
:1021700011E81F04007D000031A0352091C71F0425
:1021800080C3C901228544801F0440787D01DDBFE2
:10219000192885C31F0480C3C90126856933050535
:1021A0003354A402F1B7938741E89C439C43858B49
:1021B00082801F0440787D01CDB7293D03A94400EA
:1021C0009F07F03D00032A845B9927258327C901D7
:1021D000CDD3192855D93B0AE50183270902D1DB64
:1021E0002120060409056DBF2685828728802E845C
:1021F000AD28054719CD5C4105473BF607079F060B
:10220000F03D0003DB97F6249C4781C7A2858297A7
:1022100001473A85248028802E848128054719CDDE
:102220005C4105473BF607079F06F03D0003DB973F
:10223000F624DC4781C7A285829701473A8524802E
:1022400028802E841D20054719CD5C4105473BF6AB
:1022500007079F06F03D0003DB97F6249C4B81C7E0
:10226000A285829701473A8524806FE07F9F828014
:10227000184193C7F5FF83260741FD8E2328D740D9
:102280009306E6FF3BF9060283268740FD8E232452
:10229000D7406F034009CD8E2322D740BB101603D1
:1022A0008327C740CD8F3DA8BB1606046F030007E8
:1022B000F58F2322F74083278740CD8F2324F740D3
:1022C00025A0BB7F06026F030006FD8E2322D740A8
:1022D00083268740FD8E2324D740BB01F601832649
:1022E000C740F58F2326F7408327C7410145CD8F8F
:1022F000232EF74083270741DD8D2328B7408280B6
:102300003B1AF6056F038001FD8E2322D7408326FA
:1023100087400545F58F2324F74082808326C740F8
:10232000FD8E2326D7408326474002832880184508
:102330002A8414415C4139EB03A7064093C7F7FF99
:10234000F98F23A0F64058401048BA87BB01060118
:1023500081479B86E6049CC250444C402285093F3D
:1023600085471CCC89471CD091471CD4A1471CD859
:10237000C1471CDC930700023CC0930700043CC427
:10238000930700083CC822852080D5B5BB1EE70115
:1023900003A70640D98F75B758291C4125C3984318
:1023A0001367770098C39447184993F676FC1D8B02
:1023B0001BA7E60698C7944758411376770013F792
:1023C00086FF518F98C7D447184593F6F6F03D8B9A
:1023D0001BA7E608D8C75845D4471376F70013F76C
:1023E00006FF518FD8C75839D4471376370013F7F3
:1023F000F6CF1B27C710D8C7014582809843619B41
:1024000098C3DDBF828018801C410547D8C758415A
:1024100098C3184D98CF98471377F7F798C7944704
:1024200058451376170013F7F6FD1B27C70A98C700
:10243000984714494D9B8D8A1B27D70498C7984706
:102440005449B92098C718453B1C070298471367A1
:10245000170098C71C4183464502D84F1528D8CF8E
:1024600003475502D44F1376170013F7E6FF518F39
:10247000D8CF493F014514809847799B98C71845A4
:1024800094473336E00013F7F6FB1B27C70CD1B790
:10249000858A759B1B27D70282801C41984713674A
:1024A000070898C782801C410547D8C75C4D0F00BC
:1024B000F00FBE82739002BF828028812A84484D2B
:1024C0002EC6EFF04FCFB245484C22860CD0EFF02D
:1024D000EFCB0145248128802A8408411C4D8D833F
:1024E000858BBB8EF7011C59F99B1CD9A939584023
:1024F0009357450063FFE7080E051B05E542335778
:10250000E5021C409376F703198323A4070223A254
:10251000070294D7D8D3D45718441376370013F74B
:10252000F6F91B27C70AD8D75444D857858A5D9B2C
:102530001B27D706D8D714483B981602D857759B47
:10254000D8D70347C40215C7D85713670701D8D790
:102550005858D45B1376770013F776FC1B27C70611
:10256000D8DB1858D45B1376770013F786FF518FAA
:10257000D8DB185C3B130701985BB166558F98DB7D
:10258000985B01451367173098DB85473CC47CC4D2
:10259000248025DB0A0595B7D8571B27D704136776
:1025A000270079BF1880912001A08280EDBDE5BD94
:1025B000DDBD8280828082808280828082802882CB
:1025C000B70700103EC28D473EC6930700022A841B
:1025D0003EC84800894702C402CA3ECE893401E59C
:1025E000F2471CC024820545F5BFD884B7071010F8
:1025F000984F3D9B98CF984F1367170098CFB70718
:102600009F149843419BEF10A01BEF10601EEF102A
:10261000201BEF10801EEF10A01AEF10601EEF10AD
:10262000201AEF10401EEF10A019EF10C01E98C323
:10263000B857419BEF102019EF10801BEF10A01826
:10264000EF10A01BEF102018EF10801BEF10A01749
:10265000EF10601BEF102017EF10E01BB8D7F85FEA
:10266000419BEF10A016EF10A018EF102016EF10EE
:10267000C018EF10A015EF10A018EF102015EF10E4
:102680008018EF10A014EF100019F8DFEF10A0145D
:10269000419BEF100014EF10A015EF108013EF1006
:1026A000C015EF100013EF10A015EF108012EF10FF
:1026B0008015EF100012EF10001623A0E708EF10AE
:1026C0002012419BEF108011EF108012EF100011CB
:1026D000EF10A012EF108010EF108012EF1000101A
:1026E000EF106012EF10800FEF10E01223A2E70846
:1026F000EF10A00F419BEF10000FEF10600FEF10D5
:10270000800EEF10800FEF10000EEF10600FEF1033
:10271000800DEF10400FEF10000DEF10C00F23A839
:10272000E708EF10E00E419BEF10400EEF10400C59
:10273000EF10C00DEF10600CEF10400DEF10400CCB
:10274000EF10C00CEF10200CEF10400CEF10A00C9D
:1027500023ACE70837077F145447C19AEF10000CE9
:10276000EF10A020EF10800BEF10C020EF10000B37
:10277000EF10A020EF10800AEF10E020EF10000A09
:10278000EF10401E54C7144BC19AEF108009EF1090
:10279000C01DEF100009EF10E01DEF108008EF10D2
:1027A000C01DEF100008EF10001EEF108007EF10A3
:1027B000601B14CB544BC19AEF100007EF10E01AC6
:1027C000EF108006EF10001BEF100006EF10E01A6C
:1027D000EF108005EF10201BEF100005EF108018A0
:1027E00054CB144FC19AEF108004EF100018EF1073
:1027F0000004EF102018EF108003EF100018EF1006
:102800000003EF104018EF108002EF10A01514CF56
:10281000544FC19AEF100002EF102015EF10800105
:10282000EF104015EF100001EF102015EF108000A1
:10283000EF106015EF100000EF10C01254CF54538A
:10284000C19AEF00907FEF104012EF00107FEF1061
:102850006012EF00907EEF104012EF00107EEF103C
:102860008012EF00907DEF10E00F54D31457C19AFF
:10287000EF00107DEF10600FEF00907CEF10800FE5
:10288000EF00107CEF10600FEF00907BEF10A00FB7
:10289000EF00107BEF10000D14D7D443C19A93E6DC
:1028A0009600EF00507AEF10400CEF00D079EF1057
:1028B000600CEF005079EF10400CEF00D078EF1073
:1028C000800CEF005078EF10E009D4C3944BC19A0C
:1028D00093E69600EF009077EF102009EF00107755
:1028E000EF104009EF009076EF102009EF0010760E
:1028F000EF106009EF009075EF10C00694CBD44B39
:10290000EF007077EF00F074EF102006EF007074A6
:10291000EF104006EF00F073EF102006EF00707329
:10292000EF106006EF00F072EF10C003D4CB944FAD
:10293000EF007074EF005072EF102003EF00D071C1
:10294000EF104003EF005071EF102003EF00D07044
:10295000EF106003EF005070EF10C00094CFD4531D
:10296000EF007071EF00B06FEF102000EF00306FDC
:10297000EF104000EF00B06EEF102000EF00306E5F
:10298000EF106000EF00B06DEF00D07DD4D394570E
:10299000EF00706EEF00106DEF00307DEF00906C77
:1029A000EF00507DEF00106CEF00307DEF00906B7A
:1029B000EF00707DEF00106BEF00D07A94D7944752
:1029C000EF00706BEF00706AEF00307AEF00F06993
:1029D000EF00507AEF007069EF00307AEF00F06896
:1029E000EF00707AEF007068EF00D07794C7D4479B
:1029F000EF007068EF00D067EF003077EF005067AE
:102A0000EF005077EF00D066EF003077EF005066B0
:102A1000EF007077EF00D065EF00D074D4C7D44FCB
:102A2000EF007065EF00B065EF003074EF003065C7
:102A3000EF005074EF00B064EF003074EF003064CA
:102A4000EF007074D4CFD04FB7067E14EF00D07073
:102A5000D0CF9053419A13664600EF00B062EF006A
:102A6000906DEF003062EF00B06DEF00B061EF00ED
:102A7000906DEF003061EF00706DEF00B060EF001F
:102A8000B06D90D3EF00B060419A13662600EF005E
:102A9000D05FEF00506AEF00505FEF00706AEF0008
:102AA000D05EEF00506AEF00505EEF00306AEF003A
:102AB000D05DEF00706A23AAC708D057EF00D05F3F
:102AC000EF00505DEF003067EF00D05CEF00506723
:102AD000EF00505CEF003067EF00D05BEF00106755
:102AE000EF00505BEF005067D0D7D05FEF00D05CB5
:102AF000EF00B05AEF003064EF00305AEF0050643E
:102B0000EF00B059EF003064EF003059EF0010646F
:102B1000EF00B058EF005064D0DFB047EF00D0595D
:102B2000EF001058EF003061EF009057EF00506158
:102B3000EF001057EF003061EF009056EF0010618A
:102B4000EF001056EF005061B0C7B043EF00D05611
:102B5000EF007055EF00305EEF00F054EF00505E74
:102B6000EF007054EF00305EEF00F053EF00105EA6
:102B7000EF007053EF00505EB0C3F047EF00D0534A
:102B8000EF00D052EF00305BEF005052EF00505B8F
:102B9000EF00D051EF00305BEF005051EF00105BC1
:102BA000EF00D050EF00505BF0C7F043EF00D05083
:102BB000EF003050EF003058EF00B04FEF005058AA
:102BC000EF00304FEF003058EF00B04EEF001058DC
:102BD000EF00304EEF005058F0C3B04BEF00D04D37
:102BE000EF00104EEF003055EF00904DEF005055C4
:102BF000EF00104DEF003055EF00904CEF001055F6
:102C0000EF00104CEF005055B0CBF04B419A1366DB
:102C10009600EF00504BEF001052EF00D04AEF004B
:102C20003052EF00504AEF001052EF00D049EF0051
:102C3000F051EF005049EF003052F0CBB04F419AC5
:102C400013669600EF009048EF00F04EEF0010483A
:102C5000EF00104FEF009047EF00F04EEF001047ED
:102C6000EF00D04EEF009046EF00104FB0CFF04F86
:102C7000EF00F04BEF00F045EF00F04BEF00704538
:102C8000EF00104CEF00F044EF00F04BEF00704409
:102C9000EF00D04BEF00F043EF00104CF0CFB053FB
:102CA000EF00F048EF005043EF00F048EF00D04253
:102CB000EF001049EF005042EF00F048EF00D04124
:102CC000EF00D048EF005041EF001049B0D3F0536F
:102CD000EF00F045EF00B040EF00F045EF0030406E
:102CE000EF001046EF00B03FEF00F045EF00303F3F
:102CF000EF00D045EF00B03EEF001046F0D3EF00FC
:102D0000B03EEF005041EF00F03DEF00D042EF0049
:102D1000703DEF00F042EF00F03CEF00D042EF00DA
:102D2000703CEF00B042EF00F03BEF00F04223A216
:102D3000C70AEF00103CEF00103EEF00503BEF00E1
:102D4000903FEF00D03AEF00B03FEF00503AEF0075
:102D5000903FEF00D039EF00703FEF005039EF00A7
:102D6000B03F23A8C70AEF007039EF00D03AEF0058
:102D7000B038EF00503CEF003038EF00703CEF000F
:102D8000B037EF00503CEF003037EF00303CEF0041
:102D9000B036EF00703C23A4C70AEF00D036EF0036
:102DA0009037EF001036EF001039EF009035EF004C
:102DB0003039EF001035EF001039EF009034EF009C
:102DC000F038EF001034EF00303923AAC70AEF00C3
:102DD0003034EF005034EF007033EF00D035EF00A7
:102DE000F032EF00F035EF007032EF00D035EF0039
:102DF000F031EF00B035EF007031EF00F03523A671
:102E0000C70AEF001032EF001031EF005031EF0031
:102E10009032EF00D030EF00B032EF005030EF00D2
:102E20009032EF00D02FEF007032EF00502FEF0004
:102E3000B03223ACC70AD046EF00702FEF00D02E7F
:102E4000EF00702FEF00502EEF00902FEF00D02DED
:102E5000EF00702FEF00502DEF00502FEF00D02C1F
:102E6000EF00902FD0C69046EF00702CEF00702E30
:102E7000EF00702CEF00F02DEF00902CEF00702D84
:102E8000EF00702CEF00F02CEF00502CEF00702CB6
:102E9000EF00902C90C65443C19A93E64600EF0091
:102EA000102CEF00902CEF00902BEF00B02CEF00D7
:102EB000102BEF00902CEF00902AEF00D02CEF00A9
:102EC000102AEF00302A54C31447C19A93E64600F3
:102ED000EF00102BEF007029EF00902AEF009029EF
:102EE000EF00102AEF007029EF009029EF00B029C1
:102EF000EF001029EF00102714C7EF007029419B45
:102F000013673700EF009028EF00900EEF001028B5
:102F1000EF00B00EEF009027EF00900EEF001027AB
:102F2000EF00700EEF009026EF00F00E23A4E708EC
:102F3000EF00B026419B13673700EF00D025EF006C
:102F4000300BEF005025EF00500BEF00D024EF00C6
:102F5000300BEF005024EF00100BEF00D023EF00F8
:102F6000900B23A6E708854537050014EF00703164
:102F7000814537050014EF00702D13854157B707C1
:102F800000141CC11F0400C20100F1470D4C814414
:102F90007CC940C12324850144C5094AEF00502063
:102FA000854AEF009020372500148545EF00702DED
:102FB00037250014EF0070291385415EB7270014F0
:102FC0001CC1F9477CC940C12324850144C5EF00D9
:102FD000301DEF00901D371430188545130584000F
:102FE000EF00302A138581E8914C930784001CC1BF
:102FF000A305550323050502232E9501232C9501D6
:10300000232095032322950344C944C106B5EFD07C
:103010005FC73705A0148545EF00B0261389410925
:10302000B707A0142320F90093070003232CF90409
:1030300093071003232EF904B717350C938657C353
:103040009F07010069180544232AF902C167B70BDD
:103050006A18232ED900130C800C9D46A2972328B2
:103060004901232299002324990023269900232A29
:103070007901232C99002320890223228902231419
:1030800089032306890223289903230C5903232E3D
:10309000D9022320F9042322890423248904230646
:1030A000590523288904231A8904130D4002EF00CF
:1030B0003014230E5101EF007010C149930D000729
:1030C000230651036ED84EDA4EDC6C084A85EF00B9
:1030D00050104A85EF0050121F06B6250003A28546
:1030E0004A85EF00D0119D4503258905EF00B018F2
:1030F0004A85EF00700E03258905EF0030181F0682
:10310000B825000381454A85EF00700F95450325DA
:10311000C905EF0050164A85EF00100C0325C905BC
:10312000EF00D0153715A014EF009015138BC10FC9
:10313000B717A0142320FB003717350C9307200383
:10314000232CFB04130657C393073003232EFB04E1
:1031500023284B0123229B0023249B0023269B0032
:10316000232A7B01232C9B00232ECB0023208B02C0
:1031700023228B0223148B03EF0090075A85EF0064
:1031800050045A85EF0050073725A014EF00500F68
:10319000938B4116B727A01423A0FB00930740038D
:1031A00023ACFB049307500323AEFB043717350C05
:1031B000B7076A1823AAFB00930757C323A84B013C
:1031C00023A29B0023A49B0023A69B0023AC9B006F
:1031D00023AEFB0023A08B0223A28B0223948B033C
:1031E000EF0010015E85EF00C07D5E85EF00D0002E
:1031F0003735A014EF00D0089389C11CB737A0144D
:1032000023A0F9009307600323ACF904930770032C
:1032100023AEF904B707803E23AAF9003726401FE2
:103220009547130506F423A8F9029F070100E02E35
:1032300023AEA9000D4C1305C01223AAF9029D4626
:103240009F070100A00F23A8490123A2990023A4EE
:10325000990023A6990023AC990023A0890223A2F8
:1032600089032394A90223865903238C590323AE8F
:10327000D90223A0F90423A2890423A449052386A3
:10328000590523A88904239A8904892FAD27230E81
:1032900081002D27230681026C084E85B127152F4A
:1032A0004E85992F1F06BA2500034E85812F03A551
:1032B00089059D45EF00207C392F03A58905EF0086
:1032C000E07B1F06BC2500034E8581450D2F03A51D
:1032D000C905E685EF00207AFD2D03A5C905EF009D
:1032E000E0793745A014EF00A079938A4123B747CE
:1032F000A01423A0FA00B725401F9307800323AC36
:10330000FA043707803E93079003138805F41305EA
:10331000C01223AEFA0423A84A0123A29A0023A4D0
:103320009A0023A69A0023AAEA0023AC9A0023AEAF
:103330000A0123A08A0223A28A032394AA022386D5
:103340008A0423A84A05239A8A04492D6D25230E51
:103350008100AD25512D1308C101C2855685952DDB
:103360005685592D1F06B225000356858145412DEE
:1033700003A5CA05E68501275685B92D03A5CA050B
:10338000F52D3755A014ED2D138CC129B757A01476
:103390003706803E2320FC00B725401F9307A0037B
:1033A000232CFC04232ACC009307B003138605F4D6
:1033B0000D471305C012232EFC0423284C012322A1
:1033C0009C0023249C0023269C00232C9C00232E5D
:1033D000CC0023208C022322EC022314AC02092D02
:1033E000230E8100E12B62856C08FD2BDD236285B5
:1033F00021253785A014692593844130B787A0140F
:103400009CC093070004BCCC93071004FCCC014A79
:10341000AD2DB7078813DCC89F070100E204DCD894
:1034200019479F070100A60EC0C023A4440123A68C
:10343000440123AC440123AE440180D0C0D0239486
:1034400044032386840223A89403238C8402D8DCBB
:10345000BCC0E0C0A0C4692B230E810085232306D5
:1034600081026ED822DA22DC26859D2326856923F7
:103470001F06AA25000326855123A84C9D45E52B50
:103480002685992BA84CDD2B37050018D52B8945AF
:1034900037050018652BA14537050018492B938483
:1034A00041EBB70700189CC0A92B9307C0059CC827
:1034B0009307D005BCD09307E005BCD49307F00573
:1034C000BCD893070006B52361462523894D0D4DD1
:1034D0009D466ED26AD036D622DA70088145352BE9
:1034E00002CEA2851D236ACEEE85052366CE152B5E
:1034F00021473AD6EA850523371500185123371599
:103500000018EE85A123371500180D23B7170018F2
:10351000938441F59CC093071006E5219CC893074E
:103520002006BCD093073006BCD493074006BCD815
:1035300093075006FD29C529A9473ECE6ED26AD011
:1035400022D68145C9296ECEE92922D6A285E1215C
:1035500066CEC1296ED6EE857D2995477008EA852D
:10356000C1216ED622DA5529B147E68570084D296A
:103570006ED622DA5D21B54765216ED622DA700853
:103580009545612937250018E52937250018EE856E
:103590007529372500185929B7270018938441FF4A
:1035A0009CC093076006B1299CC893078006130747
:1035B0007006BCD493079006BCD8B8D09307A00679
:1035C0008D299521C54766CE6ED26AD03ED66ADA7D
:1035D000814599216ACEB121C9473ED6A2852529C8
:1035E000814526851F06B4250003EFD0FFB5994518
:1035F0001305700649211305700649212685EFD071
:103600007FB137052018AD291385C14CB7072018A5
:103610001CC140A940B92322950105213715201866
:1036200085211385414EB71720181CC140A9A30A54
:1036300045012322450111213705301429212AC6CD
:103640003705301435293705301401219384C14FD3
:10365000930600023246D4CCB7460F009385062469
:103660003355B6023707301498C05B15A0A0CD269D
:103670009F05AC250003E52EEA85ED2EFD2EB7044F
:10368000301413850402C1262AC613850402CD2EE8
:10369000138504025D2E3707301493070702324763
:1036A000B7460F00138606243355C7029384415250
:1036B0009CC093071002DCCC930700143305F5027D
:1036C000412E9F05B02500035D26EE8565267526F3
:1036D000371530148D2EAA8D371530145526371511
:1036E0003014A526B7460F001387062433D5ED0204
:1036F0009384C154B71730149CC093072002930DD4
:10370000803EDCCC3305B503A1269F05AE25000322
:10371000B92EA285852695263715501495269384B3
:10372000413CB71750148526954D9307A0058D266B
:1037300080C480C823A6B401C0C0B12E3755501430
:1037400081261385C141B75750141CC19307100E31
:1037500000C500C92326B5015CC13D2E3765501454
:10376000052613854147B76750141CC1D14700C5D2
:10377000232845012326B5015CC1392E3705501495
:1037800001269384C136B7075014F52C9306000226
:1037900023A6B401D4C0012680C480C89307000CBE
:1037A000C52C4E85E52C4A85D52C5685DD2C092661
:1037B0006285C52CF52C5A85CD2C5E85FD24D484DC
:1037C00098C398438280B8D7B8578280F8DFF85FF3
:1037D000828023A0E70803A70708828023A2E708C6
:1037E00003A74708828023A8E70803A70709828068
:1037F0001377F7FC1367070282801377F7F782804D
:103800001377F7EF828013670720828023ACE708E5
:1038100003A7870982801377F7BF828054C7544774
:10382000828014CB144B828054CB544B828014CFB3
:10383000144F828054CF544F828054D3545382808B
:1038400014D714578280D4C3D443828094CB944B32
:103850008280D4CBD44B828094CF944F8280D4D3B7
:10386000D453828094D79457828094C7944782809F
:10387000D4C7D4478280C19A93E686008280D4CF91
:10388000D44F828090D39053828023AAC70803A686
:1038900047098280D0D7D0578280D0DFD05F828026
:1038A000B0C7B0478280B0C3B0438280F0C7F04752
:1038B0008280F0C3F0438280419A13663600828092
:1038C000B0CBB04B8280F0CBF04B8280B0CFB04F0A
:1038D0008280F0CFF04F8280B0D3B0538280F0D39B
:1038E000F053828023A2C70A03A6470A828023A836
:1038F000C70A03A6070B828023A4C70A03A6870A68
:10390000828023AAC70A03A6470B828023A6C70A80
:1039100003A6C70A8280419A13661600828023ACF0
:10392000C70A03A6870B8280D0C6D0468280419A00
:103930001366860082801376F6FC13660602828088
:103940001376F6F782801376F6EF828013660620F0
:10395000828090C6904682801376F6BF828054C3E0
:103960005443828093F6F6BF828093F6F6FC93E68A
:103970000602828093F6F6F7828093F6F6EF828055
:1039800014C71447828093E60620828023A4E708A8
:1039900003A78708828023A6E70803A7C7088280B9
:1039A0002328450144C904CD8280230655032328DA
:1039B0004503232A450304DD6FE0FFB122D222D460
:1039C0008280230E510122D222D46ED84EDA4EDCF0
:1039D0006C086FD0BFC74E856FD07FEE1308C10152
:1039E0006A868145428582806ED866DA66DC82808E
:1039F0006A8681456808D1A06FD05F84A2856FD0A8
:103A0000FFED23A2440180CC828021476ED26AD090
:103A100002D402D83AD622DA700826856FD0AFDBFE
:103A20003ECE6ED26AD002D402D88280A1456FE029
:103A30003F81BCDC26856FD0AFC840C500C52328B8
:103A400045016FE07F956FE00FF081456FE0AFFCBF
:103A50007D15C8C088CC268580C423A84401C0C871
:103A600023820402A3820402C0C46FE0DF9926858A
:103A70006FE0BFA4C84C6FD07FFCC84C6FD0BFF5BF
:103A8000A2856FE0AFF69CC080C423A84401828069
:103A900023A6B401DCC026856FE05F89A2856FD0C4
:103AA0009FDA02CE22D06AD2828002CE22D002D207
:103AB0006C08231491036FD09FDB5DC293F7F50F61
:103AC0002300F5003307C500A30FF7FE894663F90D
:103AD000C608A300F5002301F500230FF7FEA30E8F
:103AE000F7FE994663FEC606A301F500230EF7FE16
:103AF000A14663F7C606B307A0408D8B3307F500D8
:103B00001D8EB70701019387171093F5F50FB38545
:103B1000F502719AB307C7000CC323AEB7FE63F179
:103B2000C6044CC30CC723AAB7FE23ACB7FEE146BC
:103B300063F8C6024CC70CCB4CCB0CCF23A2B7FE0C
:103B400023A4B7FE23A6B7FE23A8B7FE93774700AA
:103B5000E107BA97FD4632973306F74063E3C600A4
:103B600082808CC3CCC38CC7CCC78CCBCCCB8CCF46
:103B7000CCCF93870702CDB75F294B3B6666263FC4
:103B8000000080390000003F0000004500000014E4
:103B900000000000300000000010001400000000D1
:103BA0003400000000200014000000003800000075
:103BB00000003014000000003C0000002000301421
:103BC000000000003C000000001030140000000065
:103BD00040000000201030140000000040000000F1
:103BE0000000701400000000440000000010701479
:103BF0000000000048000000000040140000000029
:103C00004C000000000020140000000050000000E4
:103C10000000601402000000540000000000B01416
:103C200001000000580000000010B0140100000066
:103C3000580001000020B0140100000058000200EC
:103C40000000001C010000005C0000000000501497
:103C5000010000006400000000105014010000008A
:103C60006400010000205014010000006400020004
:103C700000305014010000006400030000405014A4
:103C80000100000064000400005050140100000016
:103C9000640005000060501401000000640006008C
:103CA00000705014010000006400070000001014B0
:103CB0000100000068000000001040140600000031
:103CC0006C0000000000C014010000007000000043
:103CD00000007D140100000074000000000080144A
:103CE000010000007C0000000000A01401000000A2
:103CF000800000000010A0140100000080000100FE
:103D00000020A01401000000800002000030A01478
:103D100001000000800003000040A014010000002A
:103D2000800004000050A014010000008000050085
:103D30000060A01401000000800006000070A014C4
:103D400001000000800007000080A01401000000B6
:103D500080000800080030180100000090000000FA
:103D600008103018010000009000010008203018F1
:103D70000100000090000200000020180100000077
:103D800098000000001020180100000098000100B9
:103D90000020201801000000980002000000001818
:103DA0000300000084000000001000180300000061
:103DB0008800000000200018030000008C000000B4
:103DC00000003018040000009400000000103018BB
:103DD00004000000940001000020301804000000DE
:103DE0009400020000007114050000006000000053
:103DF00000000000C21B00038C1B0003F01B00032B
:103E000000000000DE1B0003B21B00030A1C0003BD
:103E100000000000010000009C1C00031C1C0003AB
:103E20000000000000000000E01C00037C1C0003F8
:103E30000000000000000000020000009C1C0003C5
:103E40001C1C00030000000000000000E01C000338
:103E50007C1C0003000000000000000003000000C4
:103E6000C81D0003001D00036E1D00039C1D000300
:103E70001A1E0003521D00038A1D0003B61D000315
:103E800004000000421F0003381E00030000000071
:103E9000B41E0003941F00039C1E000300000000DA
:103EA000261F00030500000000000000AE1F0003F5
:103EB000000000000000000000000000C41F00031C
:103EC0000000000000000000060000009C1C000331
:103ED0001C1C00030000000000000000E01C0003A8
:0C3EE0007C1C000300000000000000003B
:083EEC00FF010000FF000000CF
:0400000503000004F0
:00000001FF
